:100000000C942A000C9481000C941D020C9447005F
:100010000C9447000C9447000C9447000C94470044
:100020000C9447000C9447000C9447000C94470034
:100030000C9447000C9447000C9447000C94470024
:100040000C9447000C9447000C9447000C94470014
:100050000C94470011241FBECFE5D8E0DEBFCDBF12
:1000600010E0A0E6B0E0E2ECF9E002C005900D92ED
:10007000A036B107D9F720E0A0E6B0E001C01D929C
:10008000A236B207E1F70E941B020C94DF040C9425
:10009000000080916000811133C080916100813047
:1000A00091F028F08230C9F08530F9F0089541E0F0
:1000B00062E088E390E00E94830181E08093610028
:1000C00080936000089540E061E08BE390E00E943F
:1000D000830181E080936000089584E08093610053
:1000E00013BE81E080936000089541E062E088E300
:1000F00090E00E94830181E0809361008093600022
:1001000008951F920F920FB60F9211242F933F93D1
:100110004F935F936F937F938F939F93AF93BF930F
:10012000EF93FF930E944900FF91EF91BF91AF9130
:100130009F918F917F916F915F914F913F912F91FF
:100140000F900FBE0F901F9018954F925F926F9275
:100150007F928F929F92AF92BF92CF92DF92EF9257
:10016000FF92CF93DF9300D0CDB7DEB76B017C0158
:10017000CA01B90120E030E04AE754E40E94720469
:100180009B01AC0160E070E080E894E40E94D20240
:100190002B013C0120E030E040E853E40E9472046F
:1001A0004B015C01A70196010E946D04882324F194
:1001B00020E030E040E85FE3C701B6010E946D0433
:1001C0001816D4F4A7019601C501B4010E94490292
:1001D000A30192010E94D2020E944B0362BF85E0FC
:1001E00083BF08B600FC03C083B78111FACF13BEEA
:1001F00088B7816088BF57C020E030E040E85FE307
:10020000C701B6010E94CD02882309F44CC0A701A2
:100210009601C501B4010E94CD0288230CF043C0B1
:10022000A5019401C701B6010E94D2020E94B60244
:100230000E9444037A836983A3019201C701B60136
:100240000E94D2026B017C0169817A81072E000C29
:10025000880B990B0E947C039B01AC01C701B6017E
:100260000E94D2029B01AC0160E070E080E893E460
:100270000E9449020E944B0385E083BF20E030E0EA
:100280000CC062BF08B600FC03C083B78111FACF6F
:1002900088B7816088BF2F5F3F4F89819A81281777
:1002A00039077CF313BE0F900F90DF91CF91FF9031
:1002B000EF90DF90CF90BF90AF909F908F907F9006
:1002C0006F905F904F900895413069F4E82FF92FB7
:1002D000229181E090E002C0880F991F6A95E2F7B1
:1002E000822B8083089541110DC0E82FF92F2291B0
:1002F00081E090E002C0880F991F6A95E2F780952F
:10030000822380830895413061F4FC01408121E023
:1003100030E002C0220F331F6A95E2F7242B2083BE
:10032000089541110CC0FC01408121E030E002C081
:10033000220F331F6A95E2F7209524232083089526
:100340007894813061F120F0823009F44FC0089533
:10035000613069F028F0623089F06330B1F01BC081
:1003600085B78E7F85BF85B78D7F85BF14C085B764
:10037000816085BF85B78D7F85BF0DC085B78E7FB6
:1003800085BF85B7826085BF06C085B7816085BFA0
:1003900085B7826085BF8BB780648BBF089561305D
:1003A00069F028F0623089F06330B1F01BC085B786
:1003B0008B7F85BF85B7877F85BF14C085B7846075
:1003C00085BF85B7877F85BF0DC085B78B7F85BF0C
:1003D00085B7886085BF06C085B7846085BF85B74F
:1003E000886085BF8BB780688BBF0895623019F035
:1003F000633029F007C084B78D7F84BF03C084B702
:10040000826084BF8BB780628BBF089540E063E059
:1004100082E390E00E94640163E081E00E94A00119
:1004200020E030E040E85FE360E070E080EA91E4E3
:100430000E94A500F5CF0E9406021F920F920FB6F0
:100440000F9211242F933F934F935F936F937F935A
:100450008F939F93AF93BF93EF93FF9320E030E090
:1004600040E85FE360E070E080EA91E40E94A5006C
:10047000FF91EF91BF91AF919F918F917F916F917C
:100480005F914F913F912F910F900FBE0F901F9052
:1004900018955058BB27AA270E9461020C941B0490
:1004A0000E940D0438F00E94140420F039F49F3F9C
:1004B00019F426F40C940A040EF4E095E7FB0C946E
:1004C000DB03E92F0E942C0458F3BA176207730765
:1004D0008407950720F079F4A6F50C9466040EF4D1
:1004E000E0950B2EBA2FA02D0B01B90190010C0144
:1004F000CA01A0011124FF27591B99F0593F50F45C
:10050000503E68F11A16F040A22F232F342F4427B3
:10051000585FF3CF469537952795A795F0405395AB
:10052000C9F77EF41F16BA0B620B730B840BBAF07B
:100530009150A1F0FF0FBB1F661F771F881FC2F7E6
:100540000EC0BA0F621F731F841F48F487957795FA
:100550006795B795F7959E3F08F0B0CF9395880FB4
:1005600008F09927EE0F9795879508950E944E04FD
:1005700090F09F3748F4911116F40C94670460E0F2
:1005800070E080E89FE3089526F01B16611D711D41
:10059000811D0C94E1030C94FC030E94B70308F442
:1005A00081E008950E94E6020C941B040E9414044A
:1005B00058F00E940D0440F029F45F3F29F00C949C
:1005C000DB0351110C9467040C940A040E942C0460
:1005D00068F39923B1F3552391F3951B550BBB2772
:1005E000AA2762177307840738F09F5F5F4F220FB7
:1005F000331F441FAA1FA9F335D00E2E3AF0E0E8AE
:1006000032D091505040E695001CCAF72BD0FE2FF7
:1006100029D0660F771F881FBB1F2617370748078B
:10062000AB07B0E809F0BB0B802DBF01FF27935843
:100630005F4F3AF09E3F510578F00C94DB030C9429
:1006400067045F3FE4F3983ED4F38695779567950A
:10065000B795F7959F5FC9F7880F911D9695879578
:1006600097F90895E1E0660F771F881FBB1F621797
:1006700073078407BA0720F0621B730B840BBA0B55
:10068000EE1F88F7E09508950E944B036894B1111E
:100690000C94670408950E94340488F09F5798F0E2
:1006A000B92F9927B751B0F0E1F0660F771F881F77
:1006B000991F1AF0BA95C9F714C0B13091F00E9491
:1006C0006604B1E008950C946604672F782F88279C
:1006D000B85F39F0B93FCCF3869577956795B395B8
:1006E000D9F73EF490958095709561957F4F8F4F27
:1006F0009F4F0895E89409C097FB3EF4909580952C
:10070000709561957F4F8F4F9F4F9923A9F0F92FD7
:1007100096E9BB279395F695879577956795B79555
:10072000F111F8CFFAF4BB0F11F460FF1BC06F5F3B
:100730007F4F8F4F9F4F16C0882311F096E911C04D
:10074000772321F09EE8872F762F05C0662371F06E
:1007500096E8862F70E060E02AF09A95660F771F82
:10076000881FDAF7880F9695879597F90895990F5E
:100770000008550FAA0BE0E8FEEF16161706E8076B
:10078000F907C0F012161306E407F50798F0621B8C
:10079000730B840B950B39F40A2661F0232B242B61
:1007A000252B21F408950A2609F4A140A6958FEF80
:1007B000811D811D089597F99F6780E870E060E0D2
:1007C0000895882371F4772321F09850872B762F92
:1007D00007C0662311F499270DC09051862B70E055
:1007E00060E02AF09A95660F771F881FDAF7880F66
:1007F0009695879597F908959F3F31F0915020F491
:10080000879577956795B795880F911D96958795EC
:1008100097F908959FEF80EC089500240A94161626
:10082000170618060906089500240A9412161306DE
:10083000140605060895092E0394000C11F488236C
:1008400052F0BB0F40F4BF2B11F460FF04C06F5F88
:100850007F4F8F4F9F4F089557FD9058440F551F5E
:1008600059F05F3F71F04795880F97FB991F61F032
:100870009F3F79F087950895121613061406551FA9
:10088000F2CF4695F1DF08C0161617061806991F15
:10089000F1CF869571056105089408950E9434048E
:1008A000A0F0BEE7B91788F4BB279F3860F416168E
:1008B000B11D672F782F8827985FF7CF869577959A
:1008C0006795B11D93959639C8F30895E894BB27B1
:1008D00066277727CB0197F908950E94B70308F49C
:1008E0008FEF08950E9485040C941B040E940D0450
:1008F00038F00E94140420F0952311F00C94DB03CF
:100900000C940A0411240C9467040E942C0470F3C4
:10091000959FC1F3950F50E0551F629FF001729FA4
:10092000BB27F00DB11D639FAA27F00DB11DAA1FB3
:10093000649F6627B00DA11D661F829F2227B00D00
:10094000A11D621F739FB00DA11D621F839FA00D8B
:10095000611D221F749F3327A00D611D231F849FDB
:10096000600D211D822F762F6A2F11249F57504032
:100970009AF0F1F088234AF0EE0FFF1FBB1F661FAD
:10098000771F881F91505040A9F79E3F510580F076
:100990000C94DB030C9467045F3FE4F3983ED4F3BC
:1009A000869577956795B795F795E7959F5FC1F71A
:1009B000FE2B880F911D9695879597F90895F894C9
:0209C000FFCF67
:00000001FF
